:100000000C9468000C9490000C9490000C94900058
:100010000C9490000C9490000C9490000C94BD07EC
:100020000C9490000C9490000C9490000C949A08FE
:100030000C9490000C9490000C9490000C94900000
:100040000C9445060C9490000C9490000C94900035
:100050000C9490000C9490000C9490000C949000E0
:100060000C948F060C9490001F1C1F1E1F1E1F1F38
:100070001E1F1E1F00000000240027002A00000091
:100080000000250028002B000000000023002600AF
:10009000290004040404040404040202020202020B
:1000A000030303030303010204081020408001023C
:1000B00004081020010204081020000000080002BB
:1000C0000100000304070000000000000000CE0B48
:1000D00011241FBECFEFD8E0DEBFCDBF12E0A0E0FD
:1000E000B1E0E8EBF8E102C005900D92AC30B10749
:1000F000D9F722E0ACE0B2E001C01D92AC3FB207FC
:10010000E1F710E0C8E6D0E004C02197FE010E94AC
:100110004F0CC736D107C9F70E94A9080C945A0C96
:100120000C940000282F3091FB02313208F04AC0B5
:100130008091CB028111FCCF9091FA0242E0409372
:10014000CB022093CA022FEF2093C9021092C8025B
:100150003093C702EAEDF2E0A7EAB2E020E03217FE
:1001600021F041914D932F5FFACF1092A60220917A
:10017000A602990F922B9093A6029091A50291301E
:1001800061F41092A5029091A6029093BB00909109
:10019000BC0093FDF8CF95EC01C095EE9093BC00A8
:1001A0009091CB029230E1F39091C9029F3F79F098
:1001B0008091C902803241F08091C902803331F0D0
:1001C00084E005C081E003C082E001C083E01092BA
:1001D000D9021092FB021092D8020895833081F068
:1001E00028F4813099F08230A1F008958730A9F089
:1001F0008830B9F08430D1F4809180008F7D03C0C5
:10020000809180008F7780938000089584B58F77E8
:1002100002C084B58F7D84BD08958091B0008F7732
:1002200003C08091B0008F7D8093B0000895CF937C
:10023000DF93E1ECF0E08491EDEAF0E0D491E9E9BC
:10024000F0E0C491CC2391F081110E94EE00EC2FDC
:10025000F0E0EE0FFF1FE857FF4FA591B491EC912E
:10026000ED2381E090E021F480E002C080E090E0A6
:10027000DF91CF9108951F93CF93DF93282F30E024
:10028000F901E654FF4F8491F901EA55FF4FD491EB
:10029000F901EE56FF4FC491CC23C1F0162F811106
:1002A0000E94EE00EC2FF0E0EE0FFF1FE258FF4F30
:1002B000A591B4919FB7F894111104C08C91D09579
:1002C000D82302C0EC91DE2BDC939FBFDF91CF914E
:1002D0001F910895CF93DF9390E0FC01EA55FF4F03
:1002E0002491FC01EE56FF4F8491882361F190E048
:1002F000880F991FFC01EC58FF4FC591D491FC0168
:10030000E258FF4FA591B491611109C09FB7F894CD
:100310008881209582238883EC912E230BC0623044
:1003200061F49FB7F8948881322F309583238883B6
:10033000EC912E2B2C939FBF06C08FB7F894E881C9
:100340002E2B28838FBFDF91CF9108952FB7F8947C
:1003500060917F027091800280918102909182026F
:100360002FBF089508950895CF92DF92EF92FF92E4
:100370000F931F93CF93DF936C017A018B01C0E041
:10038000D0E0CE15DF0581F0D8016D918D01D60149
:10039000ED91FC910190F081E02DC6010995892B2A
:1003A00011F02196EECF7E01C701DF91CF911F9111
:1003B0000F91FF90EF90DF90CF90089585ED80939F
:1003C000BC008091BC0084FDFCCF1092CB0208954C
:1003D00040913602262F30E0240F311D21323105A5
:1003E000DCF42091CB022430C9F4FC0180E090E0E1
:1003F000861758F4309136022191DC01AA5EBD4F78
:10040000A30FB11D2C930196F3CF80913602680F94
:100410006093360280E0089581E0089582E00895B7
:100420000895E091840280918302E81730F4F0E0AF
:10043000EB57FD4F808190E008958FEF9FEF089577
:100440009091840280918302981750F4E92FF0E094
:10045000EB57FD4F208130E09F5F9093840202C0F4
:100460002FEF3FEFC90108958091830290E0209122
:100470008402821B91090895CF92DF92EF92FF923E
:100480000F931F93CF93DF937C01CB018A012091BF
:10049000D802222389F0EB016B01C40ED51ECC15C6
:1004A000DD0569F06991D701ED91FC910190F08132
:1004B000E02DC7010995F3CF642F0E94E801C80120
:1004C000DF91CF911F910F91FF90EF90DF90CF9030
:1004D0000895CF93DF931F92CDB7DEB76983209144
:1004E000D8022223D1F02091FB02203240F021E0FB
:1004F00030E0FC013383228380E090E015C08091DE
:10050000D902E82FF0E0E652FD4F998190838F5F8A
:100510008093D9028093FB0205C061E0CE01019671
:100520000E94E80181E090E00F90DF91CF91089563
:1005300060E08CEC92E00C9469020F931F93CF93D0
:100540008C0181E08093D80288E68093FA021092B1
:10055000D9021092FB020E949802F8012581CAE09C
:10056000822F6C2F0E94DF0B682F660F860F880F7B
:10057000682F620F8CEC92E00E946902F8012481DE
:10058000822F6C2F0E94DF0B682F660F860F880F5B
:10059000682F620F8CEC92E00E946902F8012381BF
:1005A000822F6C2F0E94DF0B682F660F860F880F3B
:1005B000682F620F8CEC92E00E94690260E08CEC84
:1005C00092E00E946902F8012281822F6C2F0E9422
:1005D000DF0B682F660F860F880F682F620F8CEC79
:1005E00092E00E946902F8012181822F6C2F0E9403
:1005F000DF0B682F660F860F880F682F620F8CEC59
:1006000092E00E946902F8012081822F6C2F0E94E3
:10061000DF0B682F660F860F880F682F620F8CEC38
:1006200092E00E9469020E94980281E0CF911F919E
:100630000F910C949200089580E090E00895CF927D
:10064000DF92EF92FF920F931F930E94A6010091F9
:1006500012021091130220911402309115026B01C5
:100660007C01C01AD10AE20AF30A60916C0270910F
:100670006D0280916E0290916F0248EEC41643E0C5
:10068000D406E104F104D0F0DC01CB010196A11DF8
:10069000B11D80936C0290936D02A0936E02B09393
:1006A0006F0208511C4F2F4F3F4F009312021093BF
:1006B00013022093140230931502C7CF1F910F919C
:1006C000FF90EF90DF90CF9008954F925F926F92DE
:1006D0007F928F929F92AF92BF92CF92DF92EF92D2
:1006E000FF920F931F93CF93DF934B015C01809197
:1006F0000E0290910F02A0911002B0911102881584
:100700009905AA05BB0509F4D2C08CE3C82ED12CEB
:10071000E12CF12CC501B401A70196010E94FF0B49
:1007200060935D02CA01B901A70196010E94FF0B07
:1007300060935E02C501B40120E13EE040E050E07C
:100740000E94FF0BCA01B90128E130E040E050E00F
:100750000E94FF0B60935F02C501B40120E831E500
:1007600041E050E00E94FF0B69017A01CA01B90122
:100770006C5F7F4F8F4F9F4F27E030E040E050E0AD
:100780000E94FF0B6F5F60936002412C512C32017D
:1007900040E004E610E0C0E9D1E0242F30E02E5420
:1007A000384FF901E370FF27309789F4C901B80188
:1007B0000E94EB0B892B31F4C901BE010E94EB0BA7
:1007C000892B29F48EE691E0A0E0B0E004C08DE62C
:1007D00091E0A0E0B0E0480E591E6A1E7B1ED301D6
:1007E000C201AA27BB27C816D906EA06FB0610F0E5
:1007F0004F5FD3CF40936302309799F4C90164E609
:1008000070E00E94EB0B892B39F4C90160E971E0BB
:100810000E94EB0B892B29F48EE691E0A0E0B0E07A
:1008200004C08DE691E0A0E0B0E0481A590A6A0AD7
:100830007B0AC418D508E608F708C90164E670E029
:100840000E94EB0BEC01C90160E971E00E94EB0B27
:10085000A8E6B0E020E0213039F4309749F4209741
:1008600029F4009729F402C04C9103C04DE101C066
:100870004CE150E060E070E0C416D506E606F706ED
:1008800040F0C41AD50AE60AF70A2F5F11962C30F9
:1008900011F72F5F20936202C394C092610280928D
:1008A0000E0290920F02A0921002B0921102DF91FC
:1008B000CF911F910F91FF90EF90DF90CF90BF905D
:1008C000AF909F908F907F906F905F904F90089522
:1008D000EF92FF920F931F93CF93DF93EC01698107
:1008E0003881432F50E08A8190E0E8E6F0E021E093
:1008F000261730F47491870F911D2F5F3196F8CF32
:10090000633018F0337009F401966DE671E0469F8C
:100910009001479F300D569F300D11242150310911
:100920004D5F5F4F5695479556954795240F351F58
:10093000280F391FA8E1B0E00E94210C2B817B0118
:100940008C01E20EF11C011D111DA8019701ACE301
:10095000B0E00E94300C2C817B018C01E20EF11C76
:10096000011D111DA80197010E94300C2D81DC0191
:10097000CB01820F911DA11DB11DBC01CD0160589D
:100980007C4B8249974CDF91CF911F910F91FF9043
:10099000EF9008958F929F92AF92BF92CF92DF9285
:1009A000EF92FF92CF93DF93EC016A017B0180E825
:1009B000C81A83E4D80A8DE6E80A88E3F80A8CE3CB
:1009C000882E912CA12CB12CC701B601A501940150
:1009D0000E94FF0B6D83CA01B901A50194010E9419
:1009E000FF0B6C83C701B60120E13EE040E050E020
:1009F0000E94FF0BCA01B90128E130E040E050E05D
:100A00000E94FF0B6B83C701B60120E831E541E08E
:100A100050E00E94FF0B18824881542F537081E0F0
:100A200009F080E090E0BC0163597E4F261737073C
:100A300038F0281B390B2D5631404F5F4883ECCFDF
:100A400081E089838981E82FF0E0E959FF4FE49143
:100A5000511103C0823009F4EF5FF0E02E173F0719
:100A600020F02E1B3F0B8F5FECCF2F5F2A83DF918F
:100A7000CF91FF90EF90DF90CF90BF90AF909F907D
:100A80008F9008959091CB029111FCCF982F8132D5
:100A900008F090E281E08093CB028093CA022FEFAE
:100AA0002093C9021092C802290F2093C702809395
:100AB000A6028091A602806D8093A6028091A50275
:100AC000813061F41092A5028091A6028093BB0050
:100AD0008091BC0083FDF8CF85EC01C085EE80934A
:100AE000BC008091CB028130E1F38091C80289176C
:100AF00010F49091C802E7EAF2E0A5E8B2E080E0E5
:100B0000891721F021912D938F5FFACF10928402E3
:100B1000809383020895CF93DF9381E08093D8027E
:100B200088E68093FA021092D9021092FB020E948A
:100B3000980281E00E94920081E090E00E944205CC
:100B40008CEC92E00E94200287FB882780F9C82F56
:100B500020E0D22FCE0121E08227DF91CF910895AE
:100B6000CF92DF92EF92FF920F931F93CF93DF9379
:100B700000D000D000D0CDB7DEB781E08093D8029E
:100B800088E68093FA021092D9021092FB020E942A
:100B9000980281E00E94920087E090E00E94420566
:100BA0008CEC92E00E9420028F77982F92959F7094
:100BB0001AEF082F919F000D11248CEC92E00E94F7
:100BC00020029C01332794E0359527959A95E1F70B
:100BD000F82E129FF00C11248CEC92E00E9420025F
:100BE0009C01332744E0359527954A95E1F7E82E97
:100BF000129FE00C11248CEC92E00E9420028CECFD
:100C000092E00E9420029C01332754E035952795FD
:100C10005A95E1F7D82E129FD00C11248CEC92E05B
:100C20000E9420029C01332764E0359527956A9540
:100C3000E1F7C82E129FC00C11248CEC92E00E94A8
:100C400020029C01332774E0359527957A95E1F7CA
:100C5000482F129F400D1124242F3C2D4D2D5E2D29
:100C60006F2D702F80E090E026960FB6F894DEBFCF
:100C70000FBECDBFDF91CF911F910F91FF90EF90ED
:100C8000DF90CF9008950E94550C1F920F920FB6DF
:100C90000F9211242F933F938F939F93AF93BF9302
:100CA00080917F0290918002A0918102B091820296
:100CB00030917E0226E0230F2D3720F40296A11DED
:100CC000B11D05C029E8230F0396A11DB11D209376
:100CD0007E0280937F0290938002A0938102B09362
:100CE000820280917A0290917B02A0917C02B09165
:100CF0007D020196A11DB11D80937A0290937B0223
:100D0000A0937C02B0937D02BF91AF919F918F9190
:100D10003F912F910F900FBE0F901F9018951F922B
:100D20000F920FB60F9211242F933F934F935F931F
:100D30006F937F938F939F93AF93BF93EF93FF93A3
:100D40008091B900887F803609F49CC068F58832AC
:100D500009F45BC090F4803109F454C038F488235E
:100D600009F4F6C0883009F44DC0F6C0883109F4A2
:100D70004CC0803209F45DC0EFC0803409F468C013
:100D800048F4803309F455C0883309F0E5C08093F6
:100D9000C902D8C0803509F44FC0883509F45DC058
:100DA000883409F0D9C0D6C0883909F4C7C0A8F47E
:100DB000883709F467C038F4883609F463C080378F
:100DC00009F460C0C9C0883809F4B8C0803909F492
:100DD0005FC0803809F0C0C05BC0803B09F486C0AA
:100DE00038F4803A09F466C0883A09F47FC0B4C088
:100DF000803C09F4A7C0883C09F4A4C0883B09F4EE
:100E00008AC0AAC08091A60210C09091C8028091A9
:100E1000C702981770F5E091C80281E08E0F8093A9
:100E2000C802F0E0E955FD4F80818093BB0085EC5E
:100E300086C08093C9028EC0E091C80281E08E0F07
:100E40008093C8028091BB00F0E0E955FD4F80839C
:100E50009091C8028091C7026EC0E091C80281E003
:100E60008E0F8093C8028091BB00F0E0E955FD4FE2
:100E700080838091CA0281116DC081E08093A502B8
:100E800084EA61C083E08093CB0210925802CFCFF6
:100E900080915802803208F051C0E091580281E000
:100EA0008E0F809358028091BB00F0E0E85CFD4F0C
:100EB0008083BDCF85EC8093BC001092CB028091E3
:100EC0005802803230F4E0915802F0E0E85CFD4FC7
:100ED00010826091580270E0E0915902F0915A023C
:100EE00088E392E009951092580236C084E080931E
:100EF000CB021092370210923602E0915B02F09121
:100F00005C02099580913602811105C081E08093D1
:100F1000360210921602E091370281E08E0F809324
:100F20003702F0E0EA5EFD4F80818093BB00909134
:100F3000370280913602981708F479CF85E88093BC
:100F4000BC000AC085EC8093BC001092CB0204C0A8
:100F50001092C9020E94DE01FF91EF91BF91AF9103
:100F60009F918F917F916F915F914F913F912F91C1
:100F70000F900FBE0F901F9018951F920F920FB6F3
:100F80000F9211242F933F934F935F936F937F930F
:100F90008F939F93AF93BF93EF93FF93E0910D02D5
:100FA000F0E0EE0FFF1FE05FFE4F808191814497DC
:100FB00011F42E9A19C0E0910D02F0E0EE0FFF1F20
:100FC000E05FFE4F80819181459711F42F9A0CC00C
:100FD000E0910D02F0E0EE0FFF1FE05FFE4F808119
:100FE000918161E00E943B01E0910C02F0E0EE0F84
:100FF000FF1FE050FF4F80819181449711F42E989C
:1010000019C0E0910C02F0E0EE0FFF1FE050FF4F1F
:1010100080819181459711F42F980CC0E0910C02CA
:10102000F0E0EE0FFF1FE050FF4F8081918160E004
:101030000E943B0180910D028F5F80930D028830EA
:1010400059F410920D0280910C028F5F80930C0274
:10105000883011F410920C02E0910C02F0E0EE0FD7
:10106000FF1FE050FF4F80819181449711F42E9A29
:1010700019C0E0910C02F0E0EE0FFF1FE050FF4FAF
:1010800080819181459711F42F9A0CC0E0910C0258
:10109000F0E0EE0FFF1FE050FF4F8081918161E093
:1010A0000E943B01E0910C02F0E0E05EFE4F808187
:1010B00020910D02082E000C990B01C0880F2A9573
:1010C000EAF787FF26C0E0910D02F0E0EE0FFF1F68
:1010D000E05FFE4F80819181449711F42E9819C0F2
:1010E000E0910D02F0E0EE0FFF1FE05FFE4F808108
:1010F0009181459711F42F980CC0E0910D02F0E01A
:10110000EE0FFF1FE05FFE4F8081918160E00E9443
:101110003B01FF91EF91BF91AF919F918F917F9193
:101120006F915F914F913F912F910F900FBE0F9054
:101130001F9018951F920F920FB60F9211248F9344
:1011400081E0809379028F910F900FBE0F901F90D6
:101150001895CF93DF93CDB7DEB765970FB6F894A8
:10116000DEBF0FBECDBF789484B5826084BD84B5E8
:10117000816084BD85B5826085BD85B5816085BD92
:1011800080916E00816080936E001092810080914A
:1011900081008260809381008091810081608093D2
:1011A0008100809180008160809380008091B100F7
:1011B00084608093B1008091B00081608093B00022
:1011C00080917A00846080937A0080917A008260B6
:1011D00080937A0080917A008E7F80937A0080914C
:1011E0007A00806880937A001092C1006CE3A62E8A
:1011F00061E0B62EE12CF12CD5018D915D01F70156
:10120000E05EFE4F80838701000F111FF801E05F51
:10121000FE4F6F018081918161E00E946A01980117
:1012200020503F4F4901D9018D919C9161E00E946E
:101230006A01F6018081918160E00E943B01D40146
:101240008D919C9160E00E943B01F601808191812B
:10125000449719F4269A2E9A06C080819181459769
:1012600011F4279A2F9AF801E050FF4F8081918165
:10127000449719F4269A2E9806C08081918145974B
:1012800011F4279A2F98BFEFEB1AFB0AE8E0EE164D
:10129000F10409F0B1CF62E087E00E946A01109288
:1012A000B0001092B1001092B2008FEF8093B300A3
:1012B0008091B00082608093B0008091B100826024
:1012C0008093B100809170008260809370001092D2
:1012D00080001092810010928500109284008FEFA0
:1012E00090E09093890080938800809180008860CE
:1012F0008093800080918100836080938100809141
:101300006F00826080936F001092840210928302BB
:101310001092D9021092FB021092CB0281E08093CE
:10132000CA021092A50261E082E10E943B0161E0E5
:1013300083E10E943B018091B9008E7F8093B900C8
:101340008091B9008D7F8093B90080E28093B800CE
:1013500085E48093BC0082EB91E090935C028093E3
:101360005B0283EB91E090935A028093590220E84C
:10137000622E712C3CE0C32ED12CE12CF12C4EEFCF
:10138000242E33243A94432C532C11E0809179027B
:10139000882309F404C10E948B05882321F10E944F
:1013A000B00529833A834B835C836D837E83CE01B2
:1013B00001960E946804AB01BC014A565F4F6F4F13
:1013C0007F4FCE0107960E94CA048B8590E0A0E073
:1013D000B0E08093680290936902A0936A02B09390
:1013E0006B028A851BC00E941F030E9465030E9436
:1013F0001F030E94650380915E0290E0A0E0B0E0D0
:101400008093680290936902A0936A02B0936B0282
:101410000E941F030E94650380915F0290E0A0E09C
:10142000B0E08093640290936502A0936602B0934B
:101430006702609168027091690280916A029091DE
:101440006B0225E030E040E050E00E94FF0B4901D4
:101450005A01209368023093690240936A025093C4
:101460006B026091640270916502809166029091B6
:101470006702273031054105510520F06F5F7F4F2E
:101480008F4F9F4FA70196010E94FF0B609364024C
:1014900070936502809366029093670200917002D8
:1014A000012700937002609176027091770220917B
:1014B00028012D8744E451E05D8B4C8B83E0880C40
:1014C000991C8A95E1F78091640290916502DC0194
:1014D00093E0AA0FBB1F9A95E1F7BB8BAA8B80E024
:1014E00090E0FC01E05EFE4F10829C01280D391D4A
:1014F000A90144555E4F5F874E872A893B89280F93
:10150000391FD901A45BBE4FB98BA88B20E030E016
:1015100061307105A1F4002391F0B080A889B989E8
:10152000AC90A301022E02C0559547950A94E2F7AC
:101530004A214B29408361157105A9F01FC0B08075
:10154000AE85BF85AC90A301022E02C0559547958C
:101550000A94E2F74A214B29408362307105E9F68B
:101560000023D9F20BC0BD85BB2341F0011106C099
:101570005081AC89BD894C91452B40832F5F3F4FF3
:101580002830310529F60196EC89FD893196FD8BCD
:10159000EC8B8830910509F0A4CF109279020E945B
:1015A0008B05811105C080917802882309F4EFC072
:1015B0000E94170120917502422F50E08417950771
:1015C00009F4A7C00E94170121E0009709F420E068
:1015D00020937502892B79F40E94A6016093710211
:1015E0007093720280937302909374021092290197
:1015F00010937802C4C0109329010E94A601809024
:10160000710290907202A0907302B0907402A201D5
:101610009101281939094A095B09DC01CB01820FC4
:10162000931FA41FB51F8C3E9240A105B10508F081
:10163000A6C0109379028091760290917702813052
:10164000910551F018F0029751F199C0809128014D
:1016500081278093280156C00E948B05882399F02A
:101660000E94B0052F83388749875A876B877C870C
:10167000CE0107960E946804AB01BC01445C5F4F39
:101680006F4F7F4F22C080916C0290916D02A091AC
:101690006E02B0916F02CC96A11DB11D2BC00E94AD
:1016A0008B058823D9F00E94B0052F83388749879E
:1016B0005A876B877C87CE0107960E946804AB012E
:1016C000BC01405F514F6F4F7F4FCE0101960E948A
:1016D000CA04CE0101960E949D0214C080916C0242
:1016E00090916D02A0916E02B0916F02805F914F58
:1016F000AF4FBF4F80936C0290936D02A0936E0228
:10170000B0936F02109370021092850010928400C3
:1017100036C0211134C080912901811130C00E944E
:10172000A6018090710290907202A0907302B09016
:101730007402DC01CB0188199909AA09BB09813D12
:101740009740A105B105D8F0109270021092850063
:1017500010928400809176029091770201968330F6
:10176000910529F0909377028093760204C010923D
:10177000770210927602109329011093790280E08B
:1017800090E0892B09F402CE0E940000FECDA2E079
:10179000B0E0B0937702A09376020ACFECECF2E0CF
:1017A0001382128288EE93E0A0E0B0E084839583F8
:1017B000A683B7838EE291E0918380830895991B7D
:1017C00079E004C0991F961708F0961B881F7A9538
:1017D000C9F78095089597FB072E16F4009407D05B
:1017E00077FD09D00E943B0C07FC05D03EF4909594
:1017F00081959F4F0895709561957F4F0895A1E25F
:101800001A2EAA1BBB1BFD010DC0AA1FBB1FEE1F7A
:10181000FF1FA217B307E407F50720F0A21BB30BC5
:10182000E40BF50B661F771F881F991F1A9469F741
:1018300060957095809590959B01AC01BD01CF019D
:101840000895A29FB001B39FC001A39F700D811D99
:101850001124911DB29F700D811D1124911D0895B9
:101860000E94210CA59F900DB49F900DA49F800D08
:10187000911D11240895AA1BBB1B51E107C0AA1F8B
:10188000BB1FA617B70710F0A61BB70B881F991F21
:101890005A95A9F780959095BC01CD010895EE0F5A
:1018A000FF1F0590F491E02D099481E090E0F894F9
:0818B0000C945A0CF894FFCFD0
:1018B80015000A00140005001000040011000200C1
:1018C8000900000001000600030008000E000F00D8
:1018D800FFFFFFFFFFFFFFFF01010000000069029B
:1018E8003C021C031002340220021102FFFFFFFF1A
:1018F800FFFFFFFF400000000000000000000000A4
:101908000000F60000000000000000430000000096
:101918000000C04000000000001F000000000000A0
:10192800000000F000000000F000000000000000CF
:1019380000E000000000000000800F000000000030
:101948001F000000000000000000000F0000000061
:10195800010101000000000000003F00000000003D
:101968000000000000F000F0000000002C0000F073
:10197800000000000000FEF0000000003F0000F042
:10198800000000003FF000F000000000000F00F031
:10199800000000003FF00006000000003F000006C5
:1019A800000000000000FE06000000002C000006F9
:0C19B8000000000000F00006000000002D
:00000001FF
