:100000000C9468000C9490000C9490000C94900058
:100010000C9490000C9490000C9490000C9450065A
:100020000C9490000C9490000C9490000C942D076C
:100030000C9490000C9490000C9490000C94900000
:100040000C94D8040C9490000C9490000C949000A4
:100050000C9490000C9490000C9490000C949000E0
:100060000C9422050C9490001F1C1F1E1F1E1F1FA6
:100070001E1F1E1F00000000240027002A00000091
:100080000000250028002B000000000023002600AF
:10009000290004040404040404040202020202020B
:1000A000030303030303010204081020408001023C
:1000B00004081020010204081020000000080002BB
:1000C0000100000304070000000000000000290AEE
:1000D00011241FBECFEFD8E0DEBFCDBF12E0A0E0FD
:1000E000B1E0EEE1F5E102C005900D92A232B10758
:1000F000D9F722E0A2E2B2E001C01D92AE3FB20702
:10010000E1F710E0C8E6D0E004C02197FE010E94AC
:10011000820AC736D107C9F70E943C070C948D0AA2
:100120000C940000282F3091FD02313208F04AC0B3
:100130008091CD028111FCCF9091FC0242E040936E
:10014000CD022093CC022FEF2093CB021092CA0253
:100150003093C902ECEDF2E0A9EAB2E020E03217F8
:1001600021F041914D932F5FFACF1092A802209178
:10017000A802990F922B9093A8029091A702913018
:1001800061F41092A7029091A8029093BB00909105
:10019000BC0093FDF8CF95EC01C095EE9093BC00A8
:1001A0009091CD029230E1F39091CB029F3F79F094
:1001B0008091CB02803241F08091CB02803331F0CC
:1001C00084E005C081E003C082E001C083E01092BA
:1001D000DB021092FD021092DA020895833081F062
:1001E00028F4813099F08230A1F008958730A9F089
:1001F0008830B9F08430D1F4809180008F7D03C0C5
:10020000809180008F7780938000089584B58F77E8
:1002100002C084B58F7D84BD08958091B0008F7732
:1002200003C08091B0008F7D8093B0000895CF937C
:10023000DF93E1ECF0E08491EDEAF0E0D491E9E9BC
:10024000F0E0C491CC2391F081110E94EE00EC2FDC
:10025000F0E0EE0FFF1FE857FF4FA591B491EC912E
:10026000ED2381E090E021F480E002C080E090E0A6
:10027000DF91CF9108951F93CF93DF93282F30E024
:10028000F901E654FF4F8491F901EA55FF4FD491EB
:10029000F901EE56FF4FC491CC23C1F0162F811106
:1002A0000E94EE00EC2FF0E0EE0FFF1FE258FF4F30
:1002B000A591B4919FB7F894111104C08C91D09579
:1002C000D82302C0EC91DE2BDC939FBFDF91CF914E
:1002D0001F910895CF93DF9390E0FC01EA55FF4F03
:1002E0002491FC01EE56FF4F8491882361F190E048
:1002F000880F991FFC01EC58FF4FC591D491FC0168
:10030000E258FF4FA591B491611109C09FB7F894CD
:100310008881209582238883EC912E230BC0623044
:1003200061F49FB7F8948881322F309583238883B6
:10033000EC912E2B2C939FBF06C08FB7F894E881C9
:100340002E2B28838FBFDF91CF91089508950895B4
:10035000CF92DF92EF92FF920F931F93CF93DF9391
:100360006C017A018B01C0E0D0E0CE15DF0581F091
:10037000D8016D918D01D601ED91FC910190F08134
:10038000E02DC6010995892B11F02196EECF7E0153
:10039000C701DF91CF911F910F91FF90EF90DF90F8
:1003A000CF90089585ED8093BC008091BC0084FDC2
:1003B000FCCF1092CD02089540914402262F30E0E8
:1003C000240F311D21323105DCF42091CD0224307F
:1003D000C9F4FC0180E090E0861758F430914402A3
:1003E0002191DC01AC5DBD4FA30FB11D2C93019693
:1003F000F3CF80914402680F6093440280E0089537
:1004000081E0089582E008950895E0918602809148
:100410008502E81730F4F0E0E957FD4F808190E065
:1004200008958FEF9FEF0895909186028091850245
:10043000981750F4E92FF0E0E957FD4F208130E0A4
:100440009F5F9093860202C02FEF3FEFC90108958E
:100450008091850290E020918602821B9109089587
:10046000CF92DF92EF92FF920F931F93CF93DF9380
:100470007C01CB018A012091DA02222389F0EB0171
:100480006B01C40ED51ECC15DD0569F06991D7014D
:10049000ED91FC910190F081E02DC7010995F3CF1A
:1004A000642F0E94DC01C801DF91CF911F910F9151
:1004B000FF90EF90DF90CF900895CF93DF931F923E
:1004C000CDB7DEB769832091DA022223D1F02091E3
:1004D000FD02203240F021E030E0FC013383228332
:1004E00080E090E015C08091DB02E82FF0E0E4525C
:1004F000FD4F998190838F5F8093DB028093FD0293
:1005000005C061E0CE0101960E94DC0181E090E02F
:100510000F90DF91CF91089560E08EEC92E00C9403
:100520005D020F931F93CF938C0181E08093DA02D9
:1005300088E68093FC021092DB021092FD020E947A
:100540008C02F8012581CAE0822F6C2F0E943A0AA2
:10055000682F660F860F880F682F620F8EEC92E06F
:100560000E945D02F8012481822F6C2F0E943A0ABA
:10057000682F660F860F880F682F620F8EEC92E04F
:100580000E945D02F8012381822F6C2F0E943A0A9B
:10059000682F660F860F880F682F620F8EEC92E02F
:1005A0000E945D0260E08EEC92E00E945D02F80124
:1005B0002281822F6C2F0E943A0A682F660F860FC5
:1005C000880F682F620F8EEC92E00E945D02F801A6
:1005D0002181822F6C2F0E943A0A682F660F860FA6
:1005E000880F682F620F8EEC92E00E945D02F80186
:1005F0002081822F6C2F0E943A0A682F660F860F87
:10060000880F682F620F8EEC92E00E945D020E94BC
:100610008C0281E0CF911F910F910C94920008956C
:1006200080E090E00895EF92FF920F931F93CF9395
:10063000DF93EC0169813881432F50E08A8190E09B
:10064000E8E6F0E021E0261730F47491870F911D61
:100650002F5F3196F8CF633018F0337009F40196AC
:100660006DE671E0469F9001479F300D569F300D1B
:100670001124215031094D5F5F4F5695479556958E
:100680004795240F351F280F391FA8E1B0E00E94BD
:10069000680A2B817B018C01E20EF11C011D111DEA
:1006A000A8019701ACE3B0E00E94770A2C817B019E
:1006B0008C01E20EF11C011D111DA80197010E9481
:1006C000770A2D81DC01CB01820F911DA11DB11D87
:1006D000BC01CD0160587C4B8249974CDF91CF9192
:1006E0001F910F91FF90EF900895FC01908190531E
:1006F0009A3008F090E0818180532AE0929F800D2B
:10070000112408958F929F92AF92BF92CF92DF9261
:10071000EF92FF92CF93DF93EC016A017B0180E8B7
:10072000C81A83E4D80A8DE6E80A88E3F80A8CE35D
:10073000882E912CA12CB12CC701B601A5019401E2
:100740000E94460A6D83CA01B901A50194010E9465
:10075000460A6C83C701B60120E13EE040E050E06C
:100760000E94460ACA01B90128E130E040E050E0A9
:100770000E94460A6B83C701B60120E831E541E0DB
:1007800050E00E94460A18824881542F537081E03D
:1007900009F080E090E0BC0163597E4F26173707CF
:1007A00038F0281B390B2D5631404F5F4883ECCF72
:1007B00081E089838981E82FF0E0E959FF4FE491D6
:1007C000511103C0823009F4EF5FF0E02E173F07AC
:1007D00020F02E1B3F0B8F5FECCF2F5F2A83DF9122
:1007E000CF91FF90EF90DF90CF90BF90AF909F9010
:1007F0008F9008959091CD029111FCCF982F813266
:1008000008F090E281E08093CD028093CC022FEF3C
:100810002093CB021092CA02290F2093C902809321
:10082000A8028091A802806D8093A8028091A702FF
:10083000813061F41092A7028091A8028093BB00DE
:100840008091BC0083FDF8CF85EC01C085EE8093DC
:10085000BC008091CD028130E1F38091CA028917FA
:1008600010F49091CA02E9EAF2E0A7E8B2E080E071
:10087000891721F021912D938F5FFACF1092860274
:10088000809385020895CF92DF92EF92FF920F93AB
:100890001F93CF93DF9300D000D000D0CDB7DEB749
:1008A00081E08093DA0288E68093FC021092DB02FA
:1008B0001092FD020E948C0281E00E94920087E06B
:1008C00090E00E94FA038EEC92E00E9414028F776F
:1008D000982F92959F701AEF082F919F000D112469
:1008E0008EEC92E00E9414029C01332794E035952F
:1008F00027959A95E1F7F82E129FF00C11248EECB3
:1009000092E00E9414029C01332744E0359527951C
:100910004A95E1F7E82E129FE00C11248EEC92E04C
:100920000E9414028EEC92E00E9414029C01332774
:1009300054E0359527955A95E1F7D82E129FD00CA3
:1009400011248EEC92E00E9414029C01332764E093
:10095000359527956A95E1F7C82E129FC00C112492
:100960008EEC92E00E9414029C01332774E03595CE
:1009700027957A95E1F7482F129F400D1124242FD7
:100980003C2D4D2D5E2D6F2D702F80E090E0269632
:100990000FB6F894DEBF0FBECDBFDF91CF911F9190
:1009A0000F91FF90EF90DF90CF9008950E94880AFA
:1009B0001F920F920FB60F9211242F933F938F9394
:1009C0009F93AF93BF938091810290918202A091F7
:1009D0008302B09184023091800226E0230F2D37EC
:1009E00020F40296A11DB11D05C029E8230F03962E
:1009F000A11DB11D209380028093810290938202F9
:100A0000A0938302B093840280917C0290917D0236
:100A1000A0917E02B0917F020196A11DB11D80932D
:100A20007C0290937D02A0937E02B0937F02BF91DF
:100A3000AF919F918F913F912F910F900FBE0F908B
:100A40001F9018951F920F920FB60F9211242F939B
:100A50003F934F935F936F937F938F939F93AF9346
:100A6000BF93EF93FF938091B900887F803609F49C
:100A70009CC068F5883209F45BC090F4803109F4B9
:100A800054C038F4882309F4F6C0883009F44DC006
:100A9000F6C0883109F44CC0803209F45DC0EFC063
:100AA000803409F468C048F4803309F455C08833B1
:100AB00009F0E5C08093CB02D8C0803509F44FC05F
:100AC000883509F45DC0883409F0D9C0D6C08839AA
:100AD00009F4C7C0A8F4883709F467C038F4883629
:100AE00009F463C0803709F460C0C9C0883809F4CC
:100AF000B8C0803909F45FC0803809F0C0C05BC05D
:100B0000803B09F486C038F4803A09F466C0883A1C
:100B100009F47FC0B4C0803C09F4A7C0883C09F444
:100B2000A4C0883B09F48AC0AAC08091A80210C062
:100B30009091CA028091C902981770F5E091CA029B
:100B400081E08E0F8093CA02F0E0E755FD4F80816F
:100B50008093BB0085EC86C08093CB028EC0E09171
:100B6000CA0281E08E0F8093CA028091BB00F0E040
:100B7000E755FD4F80839091CA028091C9026EC0F3
:100B8000E091CA0281E08E0F8093CA028091BB007F
:100B9000F0E0E755FD4F80838091CC0281116DC05C
:100BA00081E08093A70284EA61C083E08093CD0254
:100BB00010926602CFCF80916602803208F051C059
:100BC000E091660281E08E0F809366028091BB0007
:100BD000F0E0EA5BFD4F8083BDCF85EC8093BC00E5
:100BE0001092CD0280916602803230F4E09166026C
:100BF000F0E0EA5BFD4F10826091660270E0E091E8
:100C00006702F091680286E492E00995109266020C
:100C100036C084E08093CD021092450210924402C7
:100C2000E0916902F0916A02099580914402811174
:100C300005C081E08093440210922402E0914502B5
:100C400081E08E0F80934502F0E0EC5DFD4F8081E6
:100C50008093BB009091450280914402981708F45C
:100C600079CF85E88093BC000AC085EC8093BC00F6
:100C70001092CD0204C01092CB020E94D201FF91CB
:100C8000EF91BF91AF919F918F917F916F915F9104
:100C90004F913F912F910F900FBE0F901F9018957D
:100CA0001F920F920FB60F9211242F933F934F93E1
:100CB0005F936F937F938F939F93AF93BF93EF93C4
:100CC000FF93E0912302F0E0EE0FFF1FE05FFE4F85
:100CD00080819181449711F42E9A19C0E0912302EA
:100CE000F0E0EE0FFF1FE05FFE4F8081918145979E
:100CF00011F42F9A0CC0E0912302F0E0EE0FFF1FD9
:100D0000E05FFE4F8081918161E00E943B01E091B4
:100D10002202F0E0EE0FFF1FE050FF4F8081918133
:100D2000449711F42E9819C0E0912202F0E0EE0FE2
:100D3000FF1FE050FF4F80819181459711F42F985C
:100D40000CC0E0912202F0E0EE0FFF1FE050FF4FD9
:100D50008081918160E00E943B01809123028F5F3E
:100D600080932302883059F410922302809122024A
:100D70008F5F80932202883011F410922202E0915A
:100D80002202F0E0EE0FFF1FE050FF4F80819181C3
:100D9000449711F42E9A19C0E0912202F0E0EE0F70
:100DA000FF1FE050FF4F80819181459711F42F9AEA
:100DB0000CC0E0912202F0E0EE0FFF1FE050FF4F69
:100DC0008081918161E00E943B01E0912202F0E08C
:100DD000E05EFE4F808120912302082E000C990BCB
:100DE00001C0880F2A95EAF787FF26C0E091230209
:100DF000F0E0EE0FFF1FE05FFE4F8081918144978E
:100E000011F42E9819C0E0912302F0E0EE0FFF1FBD
:100E1000E05FFE4F80819181459711F42F980CC0BF
:100E2000E0912302F0E0EE0FFF1FE05FFE4F8081B4
:100E3000918160E00E943B01FF91EF91BF91AF91E2
:100E40009F918F917F916F915F914F913F912F91E2
:100E50000F900FBE0F901F9018951F920F920FB614
:100E60000F9211248F9381E080937B028F910F90DA
:100E70000FBE0F901F901895CF93DF93CDB7DEB7BD
:100E800061970FB6F894DEBF0FBECDBF789484B5DE
:100E9000826084BD84B5816084BD85B5826085BD76
:100EA00085B5816085BD80916E00816080936E0004
:100EB00010928100809181008260809381008091F6
:100EC00081008160809381008091800081608093A7
:100ED00080008091B10084608093B1008091B00067
:100EE00081608093B00080917A00846080937A0062
:100EF00080917A00826080937A0080917A008E7F60
:100F000080937A0080917A00806880937A001092B2
:100F1000C1005CE3A52E51E0B52EE12CF12CD501EA
:100F20008D915D01F701E05EFE4F80838701000F28
:100F3000111FF801E05FFE4F6F018081918161E038
:100F40000E946A01980120503F4F4901D9018D91BB
:100F50009C9161E00E946A01F6018081918160E0CC
:100F60000E943B01D4018D919C9160E00E943B0165
:100F7000F60180819181449719F4269A2E9A06C031
:100F800080819181459711F4279A2F9AF801E050BA
:100F9000FF4F80819181449719F4269A2E9806C0BC
:100FA00080819181459711F4279A2F98BFEFEB1A12
:100FB000FB0AE8E0EE16F10409F0B1CF62E087E049
:100FC0000E946A011092B0001092B1001092B2001B
:100FD0008FEF8093B3008091B00082608093B00067
:100FE0008091B10082608093B10080917000826036
:100FF0008093700010928000109281001092850002
:10100000109284008FEF90E0909389008093880085
:10101000809180008860809380008091810083604F
:101020008093810080916F00826080936F001092A6
:101030008602109285021092DB021092FD0210923D
:10104000CD0211E01093CC021092A70261E082E180
:101050000E943B0161E083E10E943B018091B90065
:101060008E7F8093B9008091B9008D7F8093B90005
:1010700080E28093B80085E48093BC0086EA91E02A
:1010800090936A028093690287EA91E090936802E4
:10109000809367021093DA0288E68093FC02109234
:1010A000DB021092FD020E948C0281E00E949200FD
:1010B00081E090E00E94FA038EEC92E00E9414021C
:1010C00087FDA7C120E8222E312C3CE0C32ED12C75
:1010D000E12CF12C11E080917B02882309F4C1C03E
:1010E0000E94430429833A834B835C836D837E8310
:1010F000CE0101960E941303AB01BC014A565F4F1B
:101100006F4F7F4FCE0107960E9482036B8570E080
:1011100080E090E04A84512C612C712C25E030E075
:1011200040E050E00E94460A49015A0120936F02B4
:10113000309370024093710250937202C301B20166
:10114000273031054105510520F06F5F7F4F8F4FEC
:101150009F4FA70196010E94460A60936B0270930D
:101160006C0280936D0290936E02009175020127CC
:1011700000937502609173027091740220912801AE
:101180002D8744E451E0598B488B83E0880C991CEF
:101190008A95E1F780916B0290916C023C0193E09B
:1011A000660C771C9A95E1F780E090E0FC01E05E28
:1011B000FE4F10829C01280D391DD901A455BE4F48
:1011C0002D019C01260D371DA901445B5E4F5F87F1
:1011D0004E8720E030E061307105A1F4002391F0EA
:1011E000B080AE85BF85AC90A101022E02C055959E
:1011F00047950A94E2F74A214B294083611571050E
:10120000A1F01EC0B080D201AC90A101022E02C09C
:10121000559547950A94E2F74A214B29408362305D
:101220007105F1F60023E1F20BC0BD85BB2341F04F
:10123000011106C05081A889B9894C91452B408382
:101240002F5F3F4F2830310531F60196E889F98943
:101250003196F98BE88B8830910509F0A7CF109271
:101260007B020E94170120917A02422F50E08417DE
:10127000950709F489C00E94170121E0009709F43D
:1012800020E020937A02892BB1F42FB7F894809153
:10129000810290918202A0918302B09184022FBFBB
:1012A0008093760290937702A0937802B0937902AC
:1012B00010922901A6C0109329012FB7F8948091AC
:1012C000810290918202A0918302B09184022FBF8B
:1012D0000297A109B109409176025091770260917D
:1012E000780270917902841B950BA60BB70B8C3E8C
:1012F0009240A105B10508F084C010937B02809153
:1013000073029091740281309105E9F0B0F0029778
:1013100009F077C00E94430429833A834B835C839E
:101320006D837E83CE0101960E941303AB01BC0145
:10133000405F514F6F4F7F4F18C080912801812728
:10134000809328011AC00E94430429833A834B8367
:101350005C836D837E83CE0101960E941303AB01F3
:10136000BC01445C5F4F6F4F7F4FCE0107960E94D8
:101370008203CE0107960E9491021093750210928B
:101380008500109284003DC021113BC0809129014D
:10139000811137C02FB7F894809181029091820219
:1013A000A0918302B09184022FBF409176025091A8
:1013B00077026091780270917902841B950BA60BDD
:1013C000B70B813D9740A105B105D8F01092750289
:1013D00010928500109284008091730290917402A3
:1013E00001968330910529F09093740280937302E3
:1013F00004C010927402109273021093290110938A
:101400007B0240E050E0452B09F465CE0E940000CD
:1014100061CE85E192E00E947503898388E08A832A
:1014200080E192E00E9475038B8388E192E00E9444
:1014300075038C838BE192E00E9475038D838EE1AE
:1014400092E00E9475038E83CE0101960E94910264
:1014500039CEEEECF2E01382128288EE93E0A0E047
:10146000B0E084839583A683B7838EE291E0918375
:1014700080830895991B79E004C0991F961708F09E
:10148000961B881F7A95C9F780950895A1E21A2EB8
:10149000AA1BBB1BFD010DC0AA1FBB1FEE1FFF1F18
:1014A000A217B307E407F50720F0A21BB30BE40B68
:1014B000F50B661F771F881F991F1A9469F76095AF
:1014C0007095809590959B01AC01BD01CF01089569
:1014D000A29FB001B39FC001A39F700D811D112475
:1014E000911DB29F700D811D1124911D08950E94C0
:1014F000680AA59F900DB49F900DA49F800D911D2B
:1015000011240895EE0FFF1F0590F491E02D09942A
:0E15100081E090E0F8940C948D0AF894FFCFDF
:10151E0015000A001400050010000400110002005E
:10152E000900000001000600030008000E000F0075
:10153E00FFFFFFFFFFFFFFFF0101000000005D0244
:10154E00300210030402280214020502FFFFFFFFFF
:10155E00FFFFFFFF40000000000000000000000041
:10156E000000F60000000000000000430000000034
:10157E000000C04000000000001F0000000000003E
:10158E00000000F000000000F0000000000000006D
:10159E0000E000000000000000800F0000000000CE
:1015AE001F000000000000000000000F00000000FF
:1015BE00010101000000000000003F0000000000DB
:1015CE000000000000F000F0000000002C0000F011
:1015DE00000000000000FEF0000000003F0000F0E0
:1015EE00000000003FF000F000000000000F00F0CF
:1015FE00000000003FF00006000000003F00000663
:10160E00000000000000FE06000000002C00000696
:10161E000000000000F00006000000004175672089
:10162E00333020323031390031353A34313A3437B3
:02163E000000AA
:00000001FF
